{
  "_format": "hh-sol-artifact-1",
  "contractName": "ICC",
  "sourceName": "contracts/ICC.sol",
  "abi": [
    {
      "inputs": [],
      "stateMutability": "nonpayable",
      "type": "constructor"
    },
    {
      "anonymous": false,
      "inputs": [
        {
          "indexed": true,
          "internalType": "address",
          "name": "owner",
          "type": "address"
        },
        {
          "indexed": true,
          "internalType": "address",
          "name": "approved",
          "type": "address"
        },
        {
          "indexed": true,
          "internalType": "uint256",
          "name": "tokenId",
          "type": "uint256"
        }
      ],
      "name": "Approval",
      "type": "event"
    },
    {
      "anonymous": false,
      "inputs": [
        {
          "indexed": true,
          "internalType": "address",
          "name": "owner",
          "type": "address"
        },
        {
          "indexed": true,
          "internalType": "address",
          "name": "operator",
          "type": "address"
        },
        {
          "indexed": false,
          "internalType": "bool",
          "name": "approved",
          "type": "bool"
        }
      ],
      "name": "ApprovalForAll",
      "type": "event"
    },
    {
      "anonymous": false,
      "inputs": [
        {
          "indexed": true,
          "internalType": "address",
          "name": "from",
          "type": "address"
        },
        {
          "indexed": true,
          "internalType": "address",
          "name": "to",
          "type": "address"
        },
        {
          "indexed": true,
          "internalType": "uint256",
          "name": "tokenId",
          "type": "uint256"
        }
      ],
      "name": "Transfer",
      "type": "event"
    },
    {
      "inputs": [],
      "name": "TOTAL_TOKEN_SUPPLY",
      "outputs": [
        {
          "internalType": "uint256",
          "name": "",
          "type": "uint256"
        }
      ],
      "stateMutability": "view",
      "type": "function"
    },
    {
      "inputs": [
        {
          "internalType": "address",
          "name": "",
          "type": "address"
        }
      ],
      "name": "TokenBalances",
      "outputs": [
        {
          "internalType": "uint256",
          "name": "",
          "type": "uint256"
        }
      ],
      "stateMutability": "view",
      "type": "function"
    },
    {
      "inputs": [
        {
          "internalType": "address",
          "name": "to",
          "type": "address"
        },
        {
          "internalType": "uint256",
          "name": "tokenId",
          "type": "uint256"
        }
      ],
      "name": "approve",
      "outputs": [],
      "stateMutability": "nonpayable",
      "type": "function"
    },
    {
      "inputs": [
        {
          "internalType": "address",
          "name": "owner",
          "type": "address"
        }
      ],
      "name": "balanceOf",
      "outputs": [
        {
          "internalType": "uint256",
          "name": "",
          "type": "uint256"
        }
      ],
      "stateMutability": "view",
      "type": "function"
    },
    {
      "inputs": [
        {
          "internalType": "uint256",
          "name": "price",
          "type": "uint256"
        },
        {
          "internalType": "uint256",
          "name": "numberofTickets",
          "type": "uint256"
        }
      ],
      "name": "buyTicket",
      "outputs": [],
      "stateMutability": "payable",
      "type": "function"
    },
    {
      "inputs": [
        {
          "internalType": "uint256",
          "name": "price",
          "type": "uint256"
        }
      ],
      "name": "buyTokens",
      "outputs": [],
      "stateMutability": "payable",
      "type": "function"
    },
    {
      "inputs": [
        {
          "internalType": "address",
          "name": "seller",
          "type": "address"
        },
        {
          "internalType": "uint256",
          "name": "amount",
          "type": "uint256"
        }
      ],
      "name": "buyWithTokens",
      "outputs": [],
      "stateMutability": "nonpayable",
      "type": "function"
    },
    {
      "inputs": [
        {
          "internalType": "uint256",
          "name": "tokenId",
          "type": "uint256"
        }
      ],
      "name": "getApproved",
      "outputs": [
        {
          "internalType": "address",
          "name": "",
          "type": "address"
        }
      ],
      "stateMutability": "view",
      "type": "function"
    },
    {
      "inputs": [
        {
          "internalType": "address",
          "name": "owner",
          "type": "address"
        },
        {
          "internalType": "address",
          "name": "operator",
          "type": "address"
        }
      ],
      "name": "isApprovedForAll",
      "outputs": [
        {
          "internalType": "bool",
          "name": "",
          "type": "bool"
        }
      ],
      "stateMutability": "view",
      "type": "function"
    },
    {
      "inputs": [],
      "name": "name",
      "outputs": [
        {
          "internalType": "string",
          "name": "",
          "type": "string"
        }
      ],
      "stateMutability": "view",
      "type": "function"
    },
    {
      "inputs": [
        {
          "internalType": "address",
          "name": "",
          "type": "address"
        }
      ],
      "name": "nftTokenBalances",
      "outputs": [
        {
          "internalType": "uint256",
          "name": "",
          "type": "uint256"
        }
      ],
      "stateMutability": "view",
      "type": "function"
    },
    {
      "inputs": [
        {
          "internalType": "uint256",
          "name": "tokenId",
          "type": "uint256"
        }
      ],
      "name": "ownerOf",
      "outputs": [
        {
          "internalType": "address",
          "name": "",
          "type": "address"
        }
      ],
      "stateMutability": "view",
      "type": "function"
    },
    {
      "inputs": [
        {
          "internalType": "address",
          "name": "from",
          "type": "address"
        },
        {
          "internalType": "address",
          "name": "to",
          "type": "address"
        },
        {
          "internalType": "uint256",
          "name": "tokenId",
          "type": "uint256"
        }
      ],
      "name": "safeTransferFrom",
      "outputs": [],
      "stateMutability": "nonpayable",
      "type": "function"
    },
    {
      "inputs": [
        {
          "internalType": "address",
          "name": "from",
          "type": "address"
        },
        {
          "internalType": "address",
          "name": "to",
          "type": "address"
        },
        {
          "internalType": "uint256",
          "name": "tokenId",
          "type": "uint256"
        },
        {
          "internalType": "bytes",
          "name": "data",
          "type": "bytes"
        }
      ],
      "name": "safeTransferFrom",
      "outputs": [],
      "stateMutability": "nonpayable",
      "type": "function"
    },
    {
      "inputs": [
        {
          "internalType": "address",
          "name": "operator",
          "type": "address"
        },
        {
          "internalType": "bool",
          "name": "approved",
          "type": "bool"
        }
      ],
      "name": "setApprovalForAll",
      "outputs": [],
      "stateMutability": "nonpayable",
      "type": "function"
    },
    {
      "inputs": [
        {
          "internalType": "bytes4",
          "name": "interfaceId",
          "type": "bytes4"
        }
      ],
      "name": "supportsInterface",
      "outputs": [
        {
          "internalType": "bool",
          "name": "",
          "type": "bool"
        }
      ],
      "stateMutability": "view",
      "type": "function"
    },
    {
      "inputs": [],
      "name": "symbol",
      "outputs": [
        {
          "internalType": "string",
          "name": "",
          "type": "string"
        }
      ],
      "stateMutability": "view",
      "type": "function"
    },
    {
      "inputs": [],
      "name": "tokenCount",
      "outputs": [
        {
          "internalType": "uint256",
          "name": "",
          "type": "uint256"
        }
      ],
      "stateMutability": "view",
      "type": "function"
    },
    {
      "inputs": [],
      "name": "tokenId",
      "outputs": [
        {
          "internalType": "uint256",
          "name": "",
          "type": "uint256"
        }
      ],
      "stateMutability": "view",
      "type": "function"
    },
    {
      "inputs": [
        {
          "internalType": "uint256",
          "name": "tokenId",
          "type": "uint256"
        }
      ],
      "name": "tokenURI",
      "outputs": [
        {
          "internalType": "string",
          "name": "",
          "type": "string"
        }
      ],
      "stateMutability": "view",
      "type": "function"
    },
    {
      "inputs": [
        {
          "internalType": "address",
          "name": "from",
          "type": "address"
        },
        {
          "internalType": "address",
          "name": "to",
          "type": "address"
        },
        {
          "internalType": "uint256",
          "name": "tokenId",
          "type": "uint256"
        }
      ],
      "name": "transferFrom",
      "outputs": [],
      "stateMutability": "nonpayable",
      "type": "function"
    },
    {
      "inputs": [
        {
          "internalType": "address",
          "name": "to",
          "type": "address"
        },
        {
          "internalType": "uint256",
          "name": "tokenId",
          "type": "uint256"
        }
      ],
      "name": "transferToProtocol",
      "outputs": [],
      "stateMutability": "nonpayable",
      "type": "function"
    },
    {
      "inputs": [
        {
          "internalType": "address",
          "name": "",
          "type": "address"
        }
      ],
      "name": "whitelist",
      "outputs": [
        {
          "internalType": "bool",
          "name": "",
          "type": "bool"
        }
      ],
      "stateMutability": "view",
      "type": "function"
    },
    {
      "inputs": [],
      "name": "withdraw",
      "outputs": [],
      "stateMutability": "payable",
      "type": "function"
    }
  ],
  "bytecode": "0x60806040523480156200001157600080fd5b506040518060400160405280601181526020017f5469636b6574696e6750726f746f636f6c0000000000000000000000000000008152506040518060400160405280600681526020017f5449434b4554000000000000000000000000000000000000000000000000000081525081600090816200008f919062000334565b508060019081620000a1919062000334565b5050506000600a8190555060006006819055506200041b565b600081519050919050565b7f4e487b7100000000000000000000000000000000000000000000000000000000600052604160045260246000fd5b7f4e487b7100000000000000000000000000000000000000000000000000000000600052602260045260246000fd5b600060028204905060018216806200013c57607f821691505b602082108103620001525762000151620000f4565b5b50919050565b60008190508160005260206000209050919050565b60006020601f8301049050919050565b600082821b905092915050565b600060088302620001bc7fffffffffffffffffffffffffffffffffffffffffffffffffffffffffffffffff826200017d565b620001c886836200017d565b95508019841693508086168417925050509392505050565b6000819050919050565b6000819050919050565b6000620002156200020f6200020984620001e0565b620001ea565b620001e0565b9050919050565b6000819050919050565b6200023183620001f4565b6200024962000240826200021c565b8484546200018a565b825550505050565b600090565b6200026062000251565b6200026d81848462000226565b505050565b5b8181101562000295576200028960008262000256565b60018101905062000273565b5050565b601f821115620002e457620002ae8162000158565b620002b9846200016d565b81016020851015620002c9578190505b620002e1620002d8856200016d565b83018262000272565b50505b505050565b600082821c905092915050565b60006200030960001984600802620002e9565b1980831691505092915050565b6000620003248383620002f6565b9150826002028217905092915050565b6200033f82620000ba565b67ffffffffffffffff8111156200035b576200035a620000c5565b5b62000367825462000123565b6200037482828562000299565b600060209050601f831160018114620003ac576000841562000397578287015190505b620003a3858262000316565b86555062000413565b601f198416620003bc8662000158565b60005b82811015620003e657848901518255600182019150602085019450602081019050620003bf565b8683101562000406578489015162000402601f891682620002f6565b8355505b6001600288020188555050505b505050505050565b613446806200042b6000396000f3fe60806040526004361061014b5760003560e01c80636352211e116100b6578063a91ac4cc1161006f578063a91ac4cc14610479578063b88d4fde146104a2578063c87b56dd146104cb578063ccf053ba14610508578063e985e9c514610533578063fead20ea146105705761014b565b80636352211e1461034357806370a082311461038057806395d89b41146103bd5780639b19251a146103e85780639f181b5e14610425578063a22cb465146104505761014b565b8063298ec20811610108578063298ec208146102725780633610724e1461028e5780633ccfd60b146102aa57806342842e0e146102b457806354161e3b146102dd57806361127d9c1461031a5761014b565b806301ffc9a71461015057806306fdde031461018d578063081812fc146101b8578063095ea7b3146101f557806317d70f7c1461021e57806323b872dd14610249575b600080fd5b34801561015c57600080fd5b50610177600480360381019061017291906122c3565b6105ad565b604051610184919061230b565b60405180910390f35b34801561019957600080fd5b506101a261068f565b6040516101af91906123b6565b60405180910390f35b3480156101c457600080fd5b506101df60048036038101906101da919061240e565b610721565b6040516101ec919061247c565b60405180910390f35b34801561020157600080fd5b5061021c600480360381019061021791906124c3565b610767565b005b34801561022a57600080fd5b5061023361087e565b6040516102409190612512565b60405180910390f35b34801561025557600080fd5b50610270600480360381019061026b919061252d565b610884565b005b61028c60048036038101906102879190612580565b6108e4565b005b6102a860048036038101906102a3919061240e565b610b4c565b005b6102b2610c0f565b005b3480156102c057600080fd5b506102db60048036038101906102d6919061252d565b610d3e565b005b3480156102e957600080fd5b5061030460048036038101906102ff91906125c0565b610d5e565b6040516103119190612512565b60405180910390f35b34801561032657600080fd5b50610341600480360381019061033c91906124c3565b610d76565b005b34801561034f57600080fd5b5061036a6004803603810190610365919061240e565b610f73565b604051610377919061247c565b60405180910390f35b34801561038c57600080fd5b506103a760048036038101906103a291906125c0565b610ff9565b6040516103b49190612512565b60405180910390f35b3480156103c957600080fd5b506103d26110b0565b6040516103df91906123b6565b60405180910390f35b3480156103f457600080fd5b5061040f600480360381019061040a91906125c0565b611142565b60405161041c919061230b565b60405180910390f35b34801561043157600080fd5b5061043a611162565b6040516104479190612512565b60405180910390f35b34801561045c57600080fd5b5061047760048036038101906104729190612619565b611168565b005b34801561048557600080fd5b506104a0600480360381019061049b91906124c3565b61117e565b005b3480156104ae57600080fd5b506104c960048036038101906104c4919061278e565b611266565b005b3480156104d757600080fd5b506104f260048036038101906104ed919061240e565b6112c8565b6040516104ff91906123b6565b60405180910390f35b34801561051457600080fd5b5061051d611330565b60405161052a9190612512565b60405180910390f35b34801561053f57600080fd5b5061055a60048036038101906105559190612811565b611336565b604051610567919061230b565b60405180910390f35b34801561057c57600080fd5b50610597600480360381019061059291906125c0565b6113ca565b6040516105a49190612512565b60405180910390f35b60007f80ac58cd000000000000000000000000000000000000000000000000000000007bffffffffffffffffffffffffffffffffffffffffffffffffffffffff1916827bffffffffffffffffffffffffffffffffffffffffffffffffffffffff1916148061067857507f5b5e139f000000000000000000000000000000000000000000000000000000007bffffffffffffffffffffffffffffffffffffffffffffffffffffffff1916827bffffffffffffffffffffffffffffffffffffffffffffffffffffffff1916145b806106885750610687826113e2565b5b9050919050565b60606000805461069e90612880565b80601f01602080910402602001604051908101604052809291908181526020018280546106ca90612880565b80156107175780601f106106ec57610100808354040283529160200191610717565b820191906000526020600020905b8154815290600101906020018083116106fa57829003601f168201915b5050505050905090565b600061072c8261144c565b6004600083815260200190815260200160002060009054906101000a900473ffffffffffffffffffffffffffffffffffffffff169050919050565b600061077282610f73565b90508073ffffffffffffffffffffffffffffffffffffffff168373ffffffffffffffffffffffffffffffffffffffff16036107e2576040517f08c379a00000000000000000000000000000000000000000000000000000000081526004016107d990612923565b60405180910390fd5b8073ffffffffffffffffffffffffffffffffffffffff16610801611497565b73ffffffffffffffffffffffffffffffffffffffff161480610830575061082f8161082a611497565b611336565b5b61086f576040517f08c379a0000000000000000000000000000000000000000000000000000000008152600401610866906129b5565b60405180910390fd5b610879838361149f565b505050565b600a5481565b61089561088f611497565b82611558565b6108d4576040517f08c379a00000000000000000000000000000000000000000000000000000000081526004016108cb90612a47565b60405180910390fd5b6108df8383836115ed565b505050565b600960003373ffffffffffffffffffffffffffffffffffffffff1673ffffffffffffffffffffffffffffffffffffffff16815260200190815260200160002060009054906101000a900460ff1615610971576040517f08c379a000000000000000000000000000000000000000000000000000000000815260040161096890612ab3565b60405180910390fd5b612710826006546109829190612b02565b106109c2576040517f08c379a00000000000000000000000000000000000000000000000000000000081526004016109b990612b82565b60405180910390fd5b81600660008282546109d49190612b02565b9250508190555060003373ffffffffffffffffffffffffffffffffffffffff1634604051610a0190612bd3565b60006040518083038185875af1925050503d8060008114610a3e576040519150601f19603f3d011682016040523d82523d6000602084013e610a43565b606091505b5050905080610a87576040517f08c379a0000000000000000000000000000000000000000000000000000000008152600401610a7e90612c34565b60405180910390fd5b600a6000815480929190610a9a90612c54565b9190505550610aab33600a546118e6565b82600760003373ffffffffffffffffffffffffffffffffffffffff1673ffffffffffffffffffffffffffffffffffffffff168152602001908152602001600020819055506001600960003373ffffffffffffffffffffffffffffffffffffffff1673ffffffffffffffffffffffffffffffffffffffff16815260200190815260200160002060006101000a81548160ff021916908315150217905550505050565b61271081600654610b5d9190612b02565b10610b9d576040517f08c379a0000000000000000000000000000000000000000000000000000000008152600401610b9490612b82565b60405180910390fd5b8060066000828254610baf9190612b02565b9250508190555080600860003373ffffffffffffffffffffffffffffffffffffffff1673ffffffffffffffffffffffffffffffffffffffff1681526020019081526020016000206000828254610c059190612b02565b9250508190555050565b6000600860003373ffffffffffffffffffffffffffffffffffffffff1673ffffffffffffffffffffffffffffffffffffffff16815260200190815260200160002054905060008111610c96576040517f08c379a0000000000000000000000000000000000000000000000000000000008152600401610c8d90612ce8565b60405180910390fd5b8060066000828254610ca89190612d08565b925050819055506000600860003373ffffffffffffffffffffffffffffffffffffffff1673ffffffffffffffffffffffffffffffffffffffff168152602001908152602001600020819055503373ffffffffffffffffffffffffffffffffffffffff166108fc829081150290604051600060405180830381858888f19350505050158015610d3a573d6000803e3d6000fd5b5050565b610d5983838360405180602001604052806000815250611266565b505050565b60076020528060005260406000206000915090505481565b80600860003373ffffffffffffffffffffffffffffffffffffffff1673ffffffffffffffffffffffffffffffffffffffff168152602001908152602001600020541015610df8576040517f08c379a0000000000000000000000000000000000000000000000000000000008152600401610def90612d88565b60405180910390fd5b600860008373ffffffffffffffffffffffffffffffffffffffff1673ffffffffffffffffffffffffffffffffffffffff1681526020019081526020016000205481600860008573ffffffffffffffffffffffffffffffffffffffff1673ffffffffffffffffffffffffffffffffffffffff16815260200190815260200160002054610e839190612b02565b11610ec3576040517f08c379a0000000000000000000000000000000000000000000000000000000008152600401610eba90612df4565b60405180910390fd5b80600860003373ffffffffffffffffffffffffffffffffffffffff1673ffffffffffffffffffffffffffffffffffffffff1681526020019081526020016000206000828254610f129190612d08565b9250508190555080600860008473ffffffffffffffffffffffffffffffffffffffff1673ffffffffffffffffffffffffffffffffffffffff1681526020019081526020016000206000828254610f689190612b02565b925050819055505050565b600080610f7f83611b03565b9050600073ffffffffffffffffffffffffffffffffffffffff168173ffffffffffffffffffffffffffffffffffffffff1603610ff0576040517f08c379a0000000000000000000000000000000000000000000000000000000008152600401610fe790612e60565b60405180910390fd5b80915050919050565b60008073ffffffffffffffffffffffffffffffffffffffff168273ffffffffffffffffffffffffffffffffffffffff1603611069576040517f08c379a000000000000000000000000000000000000000000000000000000000815260040161106090612ef2565b60405180910390fd5b600360008373ffffffffffffffffffffffffffffffffffffffff1673ffffffffffffffffffffffffffffffffffffffff168152602001908152602001600020549050919050565b6060600180546110bf90612880565b80601f01602080910402602001604051908101604052809291908181526020018280546110eb90612880565b80156111385780601f1061110d57610100808354040283529160200191611138565b820191906000526020600020905b81548152906001019060200180831161111b57829003601f168201915b5050505050905090565b60096020528060005260406000206000915054906101000a900460ff1681565b60065481565b61117a611173611497565b8383611b40565b5050565b6111883382611558565b6111c7576040517f08c379a00000000000000000000000000000000000000000000000000000000081526004016111be90612f84565b60405180910390fd5b6000600760003373ffffffffffffffffffffffffffffffffffffffff1673ffffffffffffffffffffffffffffffffffffffff16815260200190815260200160002054905080600860008573ffffffffffffffffffffffffffffffffffffffff1673ffffffffffffffffffffffffffffffffffffffff168152602001908152602001600020600082825461125a9190612b02565b92505081905550505050565b611277611271611497565b83611558565b6112b6576040517f08c379a00000000000000000000000000000000000000000000000000000000081526004016112ad90612a47565b60405180910390fd5b6112c284848484611cac565b50505050565b60606112d38261144c565b60006112dd611d08565b905060008151116112fd5760405180602001604052806000815250611328565b8061130784611d1f565b604051602001611318929190612fe0565b6040516020818303038152906040525b915050919050565b61271081565b6000600560008473ffffffffffffffffffffffffffffffffffffffff1673ffffffffffffffffffffffffffffffffffffffff16815260200190815260200160002060008373ffffffffffffffffffffffffffffffffffffffff1673ffffffffffffffffffffffffffffffffffffffff16815260200190815260200160002060009054906101000a900460ff16905092915050565b60086020528060005260406000206000915090505481565b60007f01ffc9a7000000000000000000000000000000000000000000000000000000007bffffffffffffffffffffffffffffffffffffffffffffffffffffffff1916827bffffffffffffffffffffffffffffffffffffffffffffffffffffffff1916149050919050565b61145581611ded565b611494576040517f08c379a000000000000000000000000000000000000000000000000000000000815260040161148b90612e60565b60405180910390fd5b50565b600033905090565b816004600083815260200190815260200160002060006101000a81548173ffffffffffffffffffffffffffffffffffffffff021916908373ffffffffffffffffffffffffffffffffffffffff160217905550808273ffffffffffffffffffffffffffffffffffffffff1661151283610f73565b73ffffffffffffffffffffffffffffffffffffffff167f8c5be1e5ebec7d5bd14f71427d1e84f3dd0314c0f7b2291e5b200ac8c7c3b92560405160405180910390a45050565b60008061156483610f73565b90508073ffffffffffffffffffffffffffffffffffffffff168473ffffffffffffffffffffffffffffffffffffffff1614806115a657506115a58185611336565b5b806115e457508373ffffffffffffffffffffffffffffffffffffffff166115cc84610721565b73ffffffffffffffffffffffffffffffffffffffff16145b91505092915050565b8273ffffffffffffffffffffffffffffffffffffffff1661160d82610f73565b73ffffffffffffffffffffffffffffffffffffffff1614611663576040517f08c379a000000000000000000000000000000000000000000000000000000000815260040161165a90613076565b60405180910390fd5b600073ffffffffffffffffffffffffffffffffffffffff168273ffffffffffffffffffffffffffffffffffffffff16036116d2576040517f08c379a00000000000000000000000000000000000000000000000000000000081526004016116c990613108565b60405180910390fd5b6116df8383836001611e2e565b8273ffffffffffffffffffffffffffffffffffffffff166116ff82610f73565b73ffffffffffffffffffffffffffffffffffffffff1614611755576040517f08c379a000000000000000000000000000000000000000000000000000000000815260040161174c90613076565b60405180910390fd5b6004600082815260200190815260200160002060006101000a81549073ffffffffffffffffffffffffffffffffffffffff02191690556001600360008573ffffffffffffffffffffffffffffffffffffffff1673ffffffffffffffffffffffffffffffffffffffff168152602001908152602001600020600082825403925050819055506001600360008473ffffffffffffffffffffffffffffffffffffffff1673ffffffffffffffffffffffffffffffffffffffff16815260200190815260200160002060008282540192505081905550816002600083815260200190815260200160002060006101000a81548173ffffffffffffffffffffffffffffffffffffffff021916908373ffffffffffffffffffffffffffffffffffffffff160217905550808273ffffffffffffffffffffffffffffffffffffffff168473ffffffffffffffffffffffffffffffffffffffff167fddf252ad1be2c89b69c2b068fc378daa952ba7f163c4a11628f55a4df523b3ef60405160405180910390a46118e18383836001611f54565b505050565b600073ffffffffffffffffffffffffffffffffffffffff168273ffffffffffffffffffffffffffffffffffffffff1603611955576040517f08c379a000000000000000000000000000000000000000000000000000000000815260040161194c90613174565b60405180910390fd5b61195e81611ded565b1561199e576040517f08c379a0000000000000000000000000000000000000000000000000000000008152600401611995906131e0565b60405180910390fd5b6119ac600083836001611e2e565b6119b581611ded565b156119f5576040517f08c379a00000000000000000000000000000000000000000000000000000000081526004016119ec906131e0565b60405180910390fd5b6001600360008473ffffffffffffffffffffffffffffffffffffffff1673ffffffffffffffffffffffffffffffffffffffff16815260200190815260200160002060008282540192505081905550816002600083815260200190815260200160002060006101000a81548173ffffffffffffffffffffffffffffffffffffffff021916908373ffffffffffffffffffffffffffffffffffffffff160217905550808273ffffffffffffffffffffffffffffffffffffffff16600073ffffffffffffffffffffffffffffffffffffffff167fddf252ad1be2c89b69c2b068fc378daa952ba7f163c4a11628f55a4df523b3ef60405160405180910390a4611aff600083836001611f54565b5050565b60006002600083815260200190815260200160002060009054906101000a900473ffffffffffffffffffffffffffffffffffffffff169050919050565b8173ffffffffffffffffffffffffffffffffffffffff168373ffffffffffffffffffffffffffffffffffffffff1603611bae576040517f08c379a0000000000000000000000000000000000000000000000000000000008152600401611ba59061324c565b60405180910390fd5b80600560008573ffffffffffffffffffffffffffffffffffffffff1673ffffffffffffffffffffffffffffffffffffffff16815260200190815260200160002060008473ffffffffffffffffffffffffffffffffffffffff1673ffffffffffffffffffffffffffffffffffffffff16815260200190815260200160002060006101000a81548160ff0219169083151502179055508173ffffffffffffffffffffffffffffffffffffffff168373ffffffffffffffffffffffffffffffffffffffff167f17307eab39ab6107e8899845ad3d59bd9653f200f220920489ca2b5937696c3183604051611c9f919061230b565b60405180910390a3505050565b611cb78484846115ed565b611cc384848484611f5a565b611d02576040517f08c379a0000000000000000000000000000000000000000000000000000000008152600401611cf9906132de565b60405180910390fd5b50505050565b606060405180602001604052806000815250905090565b606060006001611d2e846120e1565b01905060008167ffffffffffffffff811115611d4d57611d4c612663565b5b6040519080825280601f01601f191660200182016040528015611d7f5781602001600182028036833780820191505090505b509050600082602001820190505b600115611de2578080600190039150507f3031323334353637383961626364656600000000000000000000000000000000600a86061a8153600a8581611dd657611dd56132fe565b5b04945060008503611d8d575b819350505050919050565b60008073ffffffffffffffffffffffffffffffffffffffff16611e0f83611b03565b73ffffffffffffffffffffffffffffffffffffffff1614159050919050565b6001811115611f4e57600073ffffffffffffffffffffffffffffffffffffffff168473ffffffffffffffffffffffffffffffffffffffff1614611ec25780600360008673ffffffffffffffffffffffffffffffffffffffff1673ffffffffffffffffffffffffffffffffffffffff1681526020019081526020016000206000828254611eba9190612d08565b925050819055505b600073ffffffffffffffffffffffffffffffffffffffff168373ffffffffffffffffffffffffffffffffffffffff1614611f4d5780600360008573ffffffffffffffffffffffffffffffffffffffff1673ffffffffffffffffffffffffffffffffffffffff1681526020019081526020016000206000828254611f459190612b02565b925050819055505b5b50505050565b50505050565b6000611f7b8473ffffffffffffffffffffffffffffffffffffffff16612234565b156120d4578373ffffffffffffffffffffffffffffffffffffffff1663150b7a02611fa4611497565b8786866040518563ffffffff1660e01b8152600401611fc69493929190613382565b6020604051808303816000875af192505050801561200257506040513d601f19601f82011682018060405250810190611fff91906133e3565b60015b612084573d8060008114612032576040519150601f19603f3d011682016040523d82523d6000602084013e612037565b606091505b50600081510361207c576040517f08c379a0000000000000000000000000000000000000000000000000000000008152600401612073906132de565b60405180910390fd5b805181602001fd5b63150b7a0260e01b7bffffffffffffffffffffffffffffffffffffffffffffffffffffffff1916817bffffffffffffffffffffffffffffffffffffffffffffffffffffffff1916149150506120d9565b600190505b949350505050565b600080600090507a184f03e93ff9f4daa797ed6e38ed64bf6a1f010000000000000000831061213f577a184f03e93ff9f4daa797ed6e38ed64bf6a1f0100000000000000008381612135576121346132fe565b5b0492506040810190505b6d04ee2d6d415b85acef8100000000831061217c576d04ee2d6d415b85acef81000000008381612172576121716132fe565b5b0492506020810190505b662386f26fc1000083106121ab57662386f26fc1000083816121a1576121a06132fe565b5b0492506010810190505b6305f5e10083106121d4576305f5e10083816121ca576121c96132fe565b5b0492506008810190505b61271083106121f95761271083816121ef576121ee6132fe565b5b0492506004810190505b6064831061221c5760648381612212576122116132fe565b5b0492506002810190505b600a831061222b576001810190505b80915050919050565b6000808273ffffffffffffffffffffffffffffffffffffffff163b119050919050565b6000604051905090565b600080fd5b600080fd5b60007fffffffff0000000000000000000000000000000000000000000000000000000082169050919050565b6122a08161226b565b81146122ab57600080fd5b50565b6000813590506122bd81612297565b92915050565b6000602082840312156122d9576122d8612261565b5b60006122e7848285016122ae565b91505092915050565b60008115159050919050565b612305816122f0565b82525050565b600060208201905061232060008301846122fc565b92915050565b600081519050919050565b600082825260208201905092915050565b60005b83811015612360578082015181840152602081019050612345565b60008484015250505050565b6000601f19601f8301169050919050565b600061238882612326565b6123928185612331565b93506123a2818560208601612342565b6123ab8161236c565b840191505092915050565b600060208201905081810360008301526123d0818461237d565b905092915050565b6000819050919050565b6123eb816123d8565b81146123f657600080fd5b50565b600081359050612408816123e2565b92915050565b60006020828403121561242457612423612261565b5b6000612432848285016123f9565b91505092915050565b600073ffffffffffffffffffffffffffffffffffffffff82169050919050565b60006124668261243b565b9050919050565b6124768161245b565b82525050565b6000602082019050612491600083018461246d565b92915050565b6124a08161245b565b81146124ab57600080fd5b50565b6000813590506124bd81612497565b92915050565b600080604083850312156124da576124d9612261565b5b60006124e8858286016124ae565b92505060206124f9858286016123f9565b9150509250929050565b61250c816123d8565b82525050565b60006020820190506125276000830184612503565b92915050565b60008060006060848603121561254657612545612261565b5b6000612554868287016124ae565b9350506020612565868287016124ae565b9250506040612576868287016123f9565b9150509250925092565b6000806040838503121561259757612596612261565b5b60006125a5858286016123f9565b92505060206125b6858286016123f9565b9150509250929050565b6000602082840312156125d6576125d5612261565b5b60006125e4848285016124ae565b91505092915050565b6125f6816122f0565b811461260157600080fd5b50565b600081359050612613816125ed565b92915050565b600080604083850312156126305761262f612261565b5b600061263e858286016124ae565b925050602061264f85828601612604565b9150509250929050565b600080fd5b600080fd5b7f4e487b7100000000000000000000000000000000000000000000000000000000600052604160045260246000fd5b61269b8261236c565b810181811067ffffffffffffffff821117156126ba576126b9612663565b5b80604052505050565b60006126cd612257565b90506126d98282612692565b919050565b600067ffffffffffffffff8211156126f9576126f8612663565b5b6127028261236c565b9050602081019050919050565b82818337600083830152505050565b600061273161272c846126de565b6126c3565b90508281526020810184848401111561274d5761274c61265e565b5b61275884828561270f565b509392505050565b600082601f83011261277557612774612659565b5b813561278584826020860161271e565b91505092915050565b600080600080608085870312156127a8576127a7612261565b5b60006127b6878288016124ae565b94505060206127c7878288016124ae565b93505060406127d8878288016123f9565b925050606085013567ffffffffffffffff8111156127f9576127f8612266565b5b61280587828801612760565b91505092959194509250565b6000806040838503121561282857612827612261565b5b6000612836858286016124ae565b9250506020612847858286016124ae565b9150509250929050565b7f4e487b7100000000000000000000000000000000000000000000000000000000600052602260045260246000fd5b6000600282049050600182168061289857607f821691505b6020821081036128ab576128aa612851565b5b50919050565b7f4552433732313a20617070726f76616c20746f2063757272656e74206f776e6560008201527f7200000000000000000000000000000000000000000000000000000000000000602082015250565b600061290d602183612331565b9150612918826128b1565b604082019050919050565b6000602082019050818103600083015261293c81612900565b9050919050565b7f4552433732313a20617070726f76652063616c6c6572206973206e6f7420746f60008201527f6b656e206f776e6572206f7220617070726f76656420666f7220616c6c000000602082015250565b600061299f603d83612331565b91506129aa82612943565b604082019050919050565b600060208201905081810360008301526129ce81612992565b9050919050565b7f4552433732313a2063616c6c6572206973206e6f7420746f6b656e206f776e6560008201527f72206f7220617070726f76656400000000000000000000000000000000000000602082015250565b6000612a31602d83612331565b9150612a3c826129d5565b604082019050919050565b60006020820190508181036000830152612a6081612a24565b9050919050565b7f596f75206861766520616c726561647920626f756768742061207469636b6574600082015250565b6000612a9d602083612331565b9150612aa882612a67565b602082019050919050565b60006020820190508181036000830152612acc81612a90565b9050919050565b7f4e487b7100000000000000000000000000000000000000000000000000000000600052601160045260246000fd5b6000612b0d826123d8565b9150612b18836123d8565b9250828201905080821115612b3057612b2f612ad3565b5b92915050565b7f4e6f20746f6b656e73206c656674000000000000000000000000000000000000600082015250565b6000612b6c600e83612331565b9150612b7782612b36565b602082019050919050565b60006020820190508181036000830152612b9b81612b5f565b9050919050565b600081905092915050565b50565b6000612bbd600083612ba2565b9150612bc882612bad565b600082019050919050565b6000612bde82612bb0565b9150819050919050565b7f546f6b656e207472616e7366657220746f206275796572206661696c65642e00600082015250565b6000612c1e601f83612331565b9150612c2982612be8565b602082019050919050565b60006020820190508181036000830152612c4d81612c11565b9050919050565b6000612c5f826123d8565b91507fffffffffffffffffffffffffffffffffffffffffffffffffffffffffffffffff8203612c9157612c90612ad3565b5b600182019050919050565b7f496e73756666696369656e742062616c616e6365000000000000000000000000600082015250565b6000612cd2601483612331565b9150612cdd82612c9c565b602082019050919050565b60006020820190508181036000830152612d0181612cc5565b9050919050565b6000612d13826123d8565b9150612d1e836123d8565b9250828203905081811115612d3657612d35612ad3565b5b92915050565b7f496e73756666696369656e742066756e64730000000000000000000000000000600082015250565b6000612d72601283612331565b9150612d7d82612d3c565b602082019050919050565b60006020820190508181036000830152612da181612d65565b9050919050565b7f4f766572666c6f77000000000000000000000000000000000000000000000000600082015250565b6000612dde600883612331565b9150612de982612da8565b602082019050919050565b60006020820190508181036000830152612e0d81612dd1565b9050919050565b7f4552433732313a20696e76616c696420746f6b656e2049440000000000000000600082015250565b6000612e4a601883612331565b9150612e5582612e14565b602082019050919050565b60006020820190508181036000830152612e7981612e3d565b9050919050565b7f4552433732313a2061646472657373207a65726f206973206e6f74206120766160008201527f6c6964206f776e65720000000000000000000000000000000000000000000000602082015250565b6000612edc602983612331565b9150612ee782612e80565b604082019050919050565b60006020820190508181036000830152612f0b81612ecf565b9050919050565b7f596f7520617265206e6f7420746865206f776e6572206f66207468697320746f60008201527f6b656e0000000000000000000000000000000000000000000000000000000000602082015250565b6000612f6e602383612331565b9150612f7982612f12565b604082019050919050565b60006020820190508181036000830152612f9d81612f61565b9050919050565b600081905092915050565b6000612fba82612326565b612fc48185612fa4565b9350612fd4818560208601612342565b80840191505092915050565b6000612fec8285612faf565b9150612ff88284612faf565b91508190509392505050565b7f4552433732313a207472616e736665722066726f6d20696e636f72726563742060008201527f6f776e6572000000000000000000000000000000000000000000000000000000602082015250565b6000613060602583612331565b915061306b82613004565b604082019050919050565b6000602082019050818103600083015261308f81613053565b9050919050565b7f4552433732313a207472616e7366657220746f20746865207a65726f2061646460008201527f7265737300000000000000000000000000000000000000000000000000000000602082015250565b60006130f2602483612331565b91506130fd82613096565b604082019050919050565b60006020820190508181036000830152613121816130e5565b9050919050565b7f4552433732313a206d696e7420746f20746865207a65726f2061646472657373600082015250565b600061315e602083612331565b915061316982613128565b602082019050919050565b6000602082019050818103600083015261318d81613151565b9050919050565b7f4552433732313a20746f6b656e20616c7265616479206d696e74656400000000600082015250565b60006131ca601c83612331565b91506131d582613194565b602082019050919050565b600060208201905081810360008301526131f9816131bd565b9050919050565b7f4552433732313a20617070726f766520746f2063616c6c657200000000000000600082015250565b6000613236601983612331565b915061324182613200565b602082019050919050565b6000602082019050818103600083015261326581613229565b9050919050565b7f4552433732313a207472616e7366657220746f206e6f6e20455243373231526560008201527f63656976657220696d706c656d656e7465720000000000000000000000000000602082015250565b60006132c8603283612331565b91506132d38261326c565b604082019050919050565b600060208201905081810360008301526132f7816132bb565b9050919050565b7f4e487b7100000000000000000000000000000000000000000000000000000000600052601260045260246000fd5b600081519050919050565b600082825260208201905092915050565b60006133548261332d565b61335e8185613338565b935061336e818560208601612342565b6133778161236c565b840191505092915050565b6000608082019050613397600083018761246d565b6133a4602083018661246d565b6133b16040830185612503565b81810360608301526133c38184613349565b905095945050505050565b6000815190506133dd81612297565b92915050565b6000602082840312156133f9576133f8612261565b5b6000613407848285016133ce565b9150509291505056fea26469706673582212204060f4401e1b298beb04c5b30215da1b4d7154191e46341f51b5e823032a28b864736f6c63430008110033",
  "linkReferences": {},
  "deployedLinkReferences": {}
}