{
  "_format": "hh-sol-artifact-1",
  "contractName": "ICC",
  "sourceName": "contracts/ICC.sol",
  "abi": [
    {
      "inputs": [],
      "stateMutability": "nonpayable",
      "type": "constructor"
    },
    {
      "anonymous": false,
      "inputs": [
        {
          "indexed": true,
          "internalType": "address",
          "name": "owner",
          "type": "address"
        },
        {
          "indexed": true,
          "internalType": "address",
          "name": "approved",
          "type": "address"
        },
        {
          "indexed": true,
          "internalType": "uint256",
          "name": "tokenId",
          "type": "uint256"
        }
      ],
      "name": "Approval",
      "type": "event"
    },
    {
      "anonymous": false,
      "inputs": [
        {
          "indexed": true,
          "internalType": "address",
          "name": "owner",
          "type": "address"
        },
        {
          "indexed": true,
          "internalType": "address",
          "name": "operator",
          "type": "address"
        },
        {
          "indexed": false,
          "internalType": "bool",
          "name": "approved",
          "type": "bool"
        }
      ],
      "name": "ApprovalForAll",
      "type": "event"
    },
    {
      "anonymous": false,
      "inputs": [
        {
          "indexed": true,
          "internalType": "address",
          "name": "from",
          "type": "address"
        },
        {
          "indexed": true,
          "internalType": "address",
          "name": "to",
          "type": "address"
        },
        {
          "indexed": true,
          "internalType": "uint256",
          "name": "tokenId",
          "type": "uint256"
        }
      ],
      "name": "Transfer",
      "type": "event"
    },
    {
      "inputs": [],
      "name": "TOTAL_TOKEN_SUPPLY",
      "outputs": [
        {
          "internalType": "uint256",
          "name": "",
          "type": "uint256"
        }
      ],
      "stateMutability": "view",
      "type": "function"
    },
    {
      "inputs": [
        {
          "internalType": "address",
          "name": "",
          "type": "address"
        }
      ],
      "name": "TokenBalances",
      "outputs": [
        {
          "internalType": "uint256",
          "name": "",
          "type": "uint256"
        }
      ],
      "stateMutability": "view",
      "type": "function"
    },
    {
      "inputs": [
        {
          "internalType": "address",
          "name": "to",
          "type": "address"
        },
        {
          "internalType": "uint256",
          "name": "tokenId",
          "type": "uint256"
        }
      ],
      "name": "approve",
      "outputs": [],
      "stateMutability": "nonpayable",
      "type": "function"
    },
    {
      "inputs": [
        {
          "internalType": "address",
          "name": "owner",
          "type": "address"
        }
      ],
      "name": "balanceOf",
      "outputs": [
        {
          "internalType": "uint256",
          "name": "",
          "type": "uint256"
        }
      ],
      "stateMutability": "view",
      "type": "function"
    },
    {
      "inputs": [
        {
          "internalType": "uint256",
          "name": "price",
          "type": "uint256"
        }
      ],
      "name": "buyTicket",
      "outputs": [],
      "stateMutability": "payable",
      "type": "function"
    },
    {
      "inputs": [
        {
          "internalType": "uint256",
          "name": "price",
          "type": "uint256"
        }
      ],
      "name": "buyTokens",
      "outputs": [],
      "stateMutability": "payable",
      "type": "function"
    },
    {
      "inputs": [
        {
          "internalType": "address",
          "name": "seller",
          "type": "address"
        },
        {
          "internalType": "uint256",
          "name": "amount",
          "type": "uint256"
        }
      ],
      "name": "buyWithTokens",
      "outputs": [],
      "stateMutability": "nonpayable",
      "type": "function"
    },
    {
      "inputs": [
        {
          "internalType": "uint256",
          "name": "tokenId",
          "type": "uint256"
        }
      ],
      "name": "getApproved",
      "outputs": [
        {
          "internalType": "address",
          "name": "",
          "type": "address"
        }
      ],
      "stateMutability": "view",
      "type": "function"
    },
    {
      "inputs": [
        {
          "internalType": "address",
          "name": "owner",
          "type": "address"
        },
        {
          "internalType": "address",
          "name": "operator",
          "type": "address"
        }
      ],
      "name": "isApprovedForAll",
      "outputs": [
        {
          "internalType": "bool",
          "name": "",
          "type": "bool"
        }
      ],
      "stateMutability": "view",
      "type": "function"
    },
    {
      "inputs": [],
      "name": "name",
      "outputs": [
        {
          "internalType": "string",
          "name": "",
          "type": "string"
        }
      ],
      "stateMutability": "view",
      "type": "function"
    },
    {
      "inputs": [
        {
          "internalType": "address",
          "name": "",
          "type": "address"
        }
      ],
      "name": "nftTokenBalances",
      "outputs": [
        {
          "internalType": "uint256",
          "name": "",
          "type": "uint256"
        }
      ],
      "stateMutability": "view",
      "type": "function"
    },
    {
      "inputs": [
        {
          "internalType": "uint256",
          "name": "tokenId",
          "type": "uint256"
        }
      ],
      "name": "ownerOf",
      "outputs": [
        {
          "internalType": "address",
          "name": "",
          "type": "address"
        }
      ],
      "stateMutability": "view",
      "type": "function"
    },
    {
      "inputs": [
        {
          "internalType": "address",
          "name": "from",
          "type": "address"
        },
        {
          "internalType": "address",
          "name": "to",
          "type": "address"
        },
        {
          "internalType": "uint256",
          "name": "tokenId",
          "type": "uint256"
        }
      ],
      "name": "safeTransferFrom",
      "outputs": [],
      "stateMutability": "nonpayable",
      "type": "function"
    },
    {
      "inputs": [
        {
          "internalType": "address",
          "name": "from",
          "type": "address"
        },
        {
          "internalType": "address",
          "name": "to",
          "type": "address"
        },
        {
          "internalType": "uint256",
          "name": "tokenId",
          "type": "uint256"
        },
        {
          "internalType": "bytes",
          "name": "data",
          "type": "bytes"
        }
      ],
      "name": "safeTransferFrom",
      "outputs": [],
      "stateMutability": "nonpayable",
      "type": "function"
    },
    {
      "inputs": [
        {
          "internalType": "address",
          "name": "operator",
          "type": "address"
        },
        {
          "internalType": "bool",
          "name": "approved",
          "type": "bool"
        }
      ],
      "name": "setApprovalForAll",
      "outputs": [],
      "stateMutability": "nonpayable",
      "type": "function"
    },
    {
      "inputs": [
        {
          "internalType": "bytes4",
          "name": "interfaceId",
          "type": "bytes4"
        }
      ],
      "name": "supportsInterface",
      "outputs": [
        {
          "internalType": "bool",
          "name": "",
          "type": "bool"
        }
      ],
      "stateMutability": "view",
      "type": "function"
    },
    {
      "inputs": [],
      "name": "symbol",
      "outputs": [
        {
          "internalType": "string",
          "name": "",
          "type": "string"
        }
      ],
      "stateMutability": "view",
      "type": "function"
    },
    {
      "inputs": [],
      "name": "tokenCount",
      "outputs": [
        {
          "internalType": "uint256",
          "name": "",
          "type": "uint256"
        }
      ],
      "stateMutability": "view",
      "type": "function"
    },
    {
      "inputs": [],
      "name": "tokenId",
      "outputs": [
        {
          "internalType": "uint256",
          "name": "",
          "type": "uint256"
        }
      ],
      "stateMutability": "view",
      "type": "function"
    },
    {
      "inputs": [
        {
          "internalType": "uint256",
          "name": "tokenId",
          "type": "uint256"
        }
      ],
      "name": "tokenURI",
      "outputs": [
        {
          "internalType": "string",
          "name": "",
          "type": "string"
        }
      ],
      "stateMutability": "view",
      "type": "function"
    },
    {
      "inputs": [
        {
          "internalType": "address",
          "name": "from",
          "type": "address"
        },
        {
          "internalType": "address",
          "name": "to",
          "type": "address"
        },
        {
          "internalType": "uint256",
          "name": "tokenId",
          "type": "uint256"
        }
      ],
      "name": "transferFrom",
      "outputs": [],
      "stateMutability": "nonpayable",
      "type": "function"
    },
    {
      "inputs": [
        {
          "internalType": "address",
          "name": "to",
          "type": "address"
        },
        {
          "internalType": "uint256",
          "name": "tokenId",
          "type": "uint256"
        }
      ],
      "name": "transferToProtocol",
      "outputs": [],
      "stateMutability": "nonpayable",
      "type": "function"
    },
    {
      "inputs": [],
      "name": "withdraw",
      "outputs": [],
      "stateMutability": "payable",
      "type": "function"
    }
  ],
  "bytecode": "0x60806040523480156200001157600080fd5b506040518060400160405280601181526020017f5469636b6574696e6750726f746f636f6c0000000000000000000000000000008152506040518060400160405280600681526020017f5449434b4554000000000000000000000000000000000000000000000000000081525081600090816200008f919062000334565b508060019081620000a1919062000334565b505050600060098190555060006006819055506200041b565b600081519050919050565b7f4e487b7100000000000000000000000000000000000000000000000000000000600052604160045260246000fd5b7f4e487b7100000000000000000000000000000000000000000000000000000000600052602260045260246000fd5b600060028204905060018216806200013c57607f821691505b602082108103620001525762000151620000f4565b5b50919050565b60008190508160005260206000209050919050565b60006020601f8301049050919050565b600082821b905092915050565b600060088302620001bc7fffffffffffffffffffffffffffffffffffffffffffffffffffffffffffffffff826200017d565b620001c886836200017d565b95508019841693508086168417925050509392505050565b6000819050919050565b6000819050919050565b6000620002156200020f6200020984620001e0565b620001ea565b620001e0565b9050919050565b6000819050919050565b6200023183620001f4565b6200024962000240826200021c565b8484546200018a565b825550505050565b600090565b6200026062000251565b6200026d81848462000226565b505050565b5b8181101562000295576200028960008262000256565b60018101905062000273565b5050565b601f821115620002e457620002ae8162000158565b620002b9846200016d565b81016020851015620002c9578190505b620002e1620002d8856200016d565b83018262000272565b50505b505050565b600082821c905092915050565b60006200030960001984600802620002e9565b1980831691505092915050565b6000620003248383620002f6565b9150826002028217905092915050565b6200033f82620000ba565b67ffffffffffffffff8111156200035b576200035a620000c5565b5b62000367825462000123565b6200037482828562000299565b600060209050601f831160018114620003ac576000841562000397578287015190505b620003a3858262000316565b86555062000413565b601f198416620003bc8662000158565b60005b82811015620003e657848901518255600182019150602085019450602081019050620003bf565b8683101562000406578489015162000402601f891682620002f6565b8355505b6001600288020188555050505b505050505050565b61324c806200042b6000396000f3fe6080604052600436106101405760003560e01c80636352211e116100b6578063a91ac4cc1161006f578063a91ac4cc14610431578063b88d4fde1461045a578063c87b56dd14610483578063ccf053ba146104c0578063e985e9c5146104eb578063fead20ea1461052857610140565b80636352211e1461031c57806367dd74ca1461035957806370a082311461037557806395d89b41146103b25780639f181b5e146103dd578063a22cb4651461040857610140565b806323b872dd1161010857806323b872dd1461023e5780633610724e146102675780633ccfd60b1461028357806342842e0e1461028d57806354161e3b146102b657806361127d9c146102f357610140565b806301ffc9a71461014557806306fdde0314610182578063081812fc146101ad578063095ea7b3146101ea57806317d70f7c14610213575b600080fd5b34801561015157600080fd5b5061016c60048036038101906101679190612175565b610565565b60405161017991906121bd565b60405180910390f35b34801561018e57600080fd5b50610197610647565b6040516101a49190612268565b60405180910390f35b3480156101b957600080fd5b506101d460048036038101906101cf91906122c0565b6106d9565b6040516101e1919061232e565b60405180910390f35b3480156101f657600080fd5b50610211600480360381019061020c9190612375565b61071f565b005b34801561021f57600080fd5b50610228610836565b60405161023591906123c4565b60405180910390f35b34801561024a57600080fd5b50610265600480360381019061026091906123df565b61083c565b005b610281600480360381019061027c91906122c0565b61089c565b005b61028b61095f565b005b34801561029957600080fd5b506102b460048036038101906102af91906123df565b610a8e565b005b3480156102c257600080fd5b506102dd60048036038101906102d89190612432565b610aae565b6040516102ea91906123c4565b60405180910390f35b3480156102ff57600080fd5b5061031a60048036038101906103159190612375565b610ac6565b005b34801561032857600080fd5b50610343600480360381019061033e91906122c0565b610cc3565b604051610350919061232e565b60405180910390f35b610373600480360381019061036e91906122c0565b610d49565b005b34801561038157600080fd5b5061039c60048036038101906103979190612432565b610ecb565b6040516103a991906123c4565b60405180910390f35b3480156103be57600080fd5b506103c7610f82565b6040516103d49190612268565b60405180910390f35b3480156103e957600080fd5b506103f2611014565b6040516103ff91906123c4565b60405180910390f35b34801561041457600080fd5b5061042f600480360381019061042a919061248b565b61101a565b005b34801561043d57600080fd5b5061045860048036038101906104539190612375565b611030565b005b34801561046657600080fd5b50610481600480360381019061047c9190612600565b611118565b005b34801561048f57600080fd5b506104aa60048036038101906104a591906122c0565b61117a565b6040516104b79190612268565b60405180910390f35b3480156104cc57600080fd5b506104d56111e2565b6040516104e291906123c4565b60405180910390f35b3480156104f757600080fd5b50610512600480360381019061050d9190612683565b6111e8565b60405161051f91906121bd565b60405180910390f35b34801561053457600080fd5b5061054f600480360381019061054a9190612432565b61127c565b60405161055c91906123c4565b60405180910390f35b60007f80ac58cd000000000000000000000000000000000000000000000000000000007bffffffffffffffffffffffffffffffffffffffffffffffffffffffff1916827bffffffffffffffffffffffffffffffffffffffffffffffffffffffff1916148061063057507f5b5e139f000000000000000000000000000000000000000000000000000000007bffffffffffffffffffffffffffffffffffffffffffffffffffffffff1916827bffffffffffffffffffffffffffffffffffffffffffffffffffffffff1916145b80610640575061063f82611294565b5b9050919050565b606060008054610656906126f2565b80601f0160208091040260200160405190810160405280929190818152602001828054610682906126f2565b80156106cf5780601f106106a4576101008083540402835291602001916106cf565b820191906000526020600020905b8154815290600101906020018083116106b257829003601f168201915b5050505050905090565b60006106e4826112fe565b6004600083815260200190815260200160002060009054906101000a900473ffffffffffffffffffffffffffffffffffffffff169050919050565b600061072a82610cc3565b90508073ffffffffffffffffffffffffffffffffffffffff168373ffffffffffffffffffffffffffffffffffffffff160361079a576040517f08c379a000000000000000000000000000000000000000000000000000000000815260040161079190612795565b60405180910390fd5b8073ffffffffffffffffffffffffffffffffffffffff166107b9611349565b73ffffffffffffffffffffffffffffffffffffffff1614806107e857506107e7816107e2611349565b6111e8565b5b610827576040517f08c379a000000000000000000000000000000000000000000000000000000000815260040161081e90612827565b60405180910390fd5b6108318383611351565b505050565b60095481565b61084d610847611349565b8261140a565b61088c576040517f08c379a0000000000000000000000000000000000000000000000000000000008152600401610883906128b9565b60405180910390fd5b61089783838361149f565b505050565b612710816006546108ad9190612908565b106108ed576040517f08c379a00000000000000000000000000000000000000000000000000000000081526004016108e490612988565b60405180910390fd5b80600660008282546108ff9190612908565b9250508190555080600860003373ffffffffffffffffffffffffffffffffffffffff1673ffffffffffffffffffffffffffffffffffffffff16815260200190815260200160002060008282546109559190612908565b9250508190555050565b6000600860003373ffffffffffffffffffffffffffffffffffffffff1673ffffffffffffffffffffffffffffffffffffffff168152602001908152602001600020549050600081116109e6576040517f08c379a00000000000000000000000000000000000000000000000000000000081526004016109dd906129f4565b60405180910390fd5b80600660008282546109f89190612a14565b925050819055506000600860003373ffffffffffffffffffffffffffffffffffffffff1673ffffffffffffffffffffffffffffffffffffffff168152602001908152602001600020819055503373ffffffffffffffffffffffffffffffffffffffff166108fc829081150290604051600060405180830381858888f19350505050158015610a8a573d6000803e3d6000fd5b5050565b610aa983838360405180602001604052806000815250611118565b505050565b60076020528060005260406000206000915090505481565b80600860003373ffffffffffffffffffffffffffffffffffffffff1673ffffffffffffffffffffffffffffffffffffffff168152602001908152602001600020541015610b48576040517f08c379a0000000000000000000000000000000000000000000000000000000008152600401610b3f90612a94565b60405180910390fd5b600860008373ffffffffffffffffffffffffffffffffffffffff1673ffffffffffffffffffffffffffffffffffffffff1681526020019081526020016000205481600860008573ffffffffffffffffffffffffffffffffffffffff1673ffffffffffffffffffffffffffffffffffffffff16815260200190815260200160002054610bd39190612908565b11610c13576040517f08c379a0000000000000000000000000000000000000000000000000000000008152600401610c0a90612b00565b60405180910390fd5b80600860003373ffffffffffffffffffffffffffffffffffffffff1673ffffffffffffffffffffffffffffffffffffffff1681526020019081526020016000206000828254610c629190612a14565b9250508190555080600860008473ffffffffffffffffffffffffffffffffffffffff1673ffffffffffffffffffffffffffffffffffffffff1681526020019081526020016000206000828254610cb89190612908565b925050819055505050565b600080610ccf83611798565b9050600073ffffffffffffffffffffffffffffffffffffffff168173ffffffffffffffffffffffffffffffffffffffff1603610d40576040517f08c379a0000000000000000000000000000000000000000000000000000000008152600401610d3790612b6c565b60405180910390fd5b80915050919050565b61271081600654610d5a9190612908565b10610d9a576040517f08c379a0000000000000000000000000000000000000000000000000000000008152600401610d9190612988565b60405180910390fd5b8060066000828254610dac9190612908565b9250508190555060003373ffffffffffffffffffffffffffffffffffffffff1634604051610dd990612bbd565b60006040518083038185875af1925050503d8060008114610e16576040519150601f19603f3d011682016040523d82523d6000602084013e610e1b565b606091505b5050905080610e5f576040517f08c379a0000000000000000000000000000000000000000000000000000000008152600401610e5690612c1e565b60405180910390fd5b60096000815480929190610e7290612c3e565b9190505550610e83336009546117d5565b81600760003373ffffffffffffffffffffffffffffffffffffffff1673ffffffffffffffffffffffffffffffffffffffff168152602001908152602001600020819055505050565b60008073ffffffffffffffffffffffffffffffffffffffff168273ffffffffffffffffffffffffffffffffffffffff1603610f3b576040517f08c379a0000000000000000000000000000000000000000000000000000000008152600401610f3290612cf8565b60405180910390fd5b600360008373ffffffffffffffffffffffffffffffffffffffff1673ffffffffffffffffffffffffffffffffffffffff168152602001908152602001600020549050919050565b606060018054610f91906126f2565b80601f0160208091040260200160405190810160405280929190818152602001828054610fbd906126f2565b801561100a5780601f10610fdf5761010080835404028352916020019161100a565b820191906000526020600020905b815481529060010190602001808311610fed57829003601f168201915b5050505050905090565b60065481565b61102c611025611349565b83836119f2565b5050565b61103a338261140a565b611079576040517f08c379a000000000000000000000000000000000000000000000000000000000815260040161107090612d8a565b60405180910390fd5b6000600760003373ffffffffffffffffffffffffffffffffffffffff1673ffffffffffffffffffffffffffffffffffffffff16815260200190815260200160002054905080600860008573ffffffffffffffffffffffffffffffffffffffff1673ffffffffffffffffffffffffffffffffffffffff168152602001908152602001600020600082825461110c9190612908565b92505081905550505050565b611129611123611349565b8361140a565b611168576040517f08c379a000000000000000000000000000000000000000000000000000000000815260040161115f906128b9565b60405180910390fd5b61117484848484611b5e565b50505050565b6060611185826112fe565b600061118f611bba565b905060008151116111af57604051806020016040528060008152506111da565b806111b984611bd1565b6040516020016111ca929190612de6565b6040516020818303038152906040525b915050919050565b61271081565b6000600560008473ffffffffffffffffffffffffffffffffffffffff1673ffffffffffffffffffffffffffffffffffffffff16815260200190815260200160002060008373ffffffffffffffffffffffffffffffffffffffff1673ffffffffffffffffffffffffffffffffffffffff16815260200190815260200160002060009054906101000a900460ff16905092915050565b60086020528060005260406000206000915090505481565b60007f01ffc9a7000000000000000000000000000000000000000000000000000000007bffffffffffffffffffffffffffffffffffffffffffffffffffffffff1916827bffffffffffffffffffffffffffffffffffffffffffffffffffffffff1916149050919050565b61130781611c9f565b611346576040517f08c379a000000000000000000000000000000000000000000000000000000000815260040161133d90612b6c565b60405180910390fd5b50565b600033905090565b816004600083815260200190815260200160002060006101000a81548173ffffffffffffffffffffffffffffffffffffffff021916908373ffffffffffffffffffffffffffffffffffffffff160217905550808273ffffffffffffffffffffffffffffffffffffffff166113c483610cc3565b73ffffffffffffffffffffffffffffffffffffffff167f8c5be1e5ebec7d5bd14f71427d1e84f3dd0314c0f7b2291e5b200ac8c7c3b92560405160405180910390a45050565b60008061141683610cc3565b90508073ffffffffffffffffffffffffffffffffffffffff168473ffffffffffffffffffffffffffffffffffffffff161480611458575061145781856111e8565b5b8061149657508373ffffffffffffffffffffffffffffffffffffffff1661147e846106d9565b73ffffffffffffffffffffffffffffffffffffffff16145b91505092915050565b8273ffffffffffffffffffffffffffffffffffffffff166114bf82610cc3565b73ffffffffffffffffffffffffffffffffffffffff1614611515576040517f08c379a000000000000000000000000000000000000000000000000000000000815260040161150c90612e7c565b60405180910390fd5b600073ffffffffffffffffffffffffffffffffffffffff168273ffffffffffffffffffffffffffffffffffffffff1603611584576040517f08c379a000000000000000000000000000000000000000000000000000000000815260040161157b90612f0e565b60405180910390fd5b6115918383836001611ce0565b8273ffffffffffffffffffffffffffffffffffffffff166115b182610cc3565b73ffffffffffffffffffffffffffffffffffffffff1614611607576040517f08c379a00000000000000000000000000000000000000000000000000000000081526004016115fe90612e7c565b60405180910390fd5b6004600082815260200190815260200160002060006101000a81549073ffffffffffffffffffffffffffffffffffffffff02191690556001600360008573ffffffffffffffffffffffffffffffffffffffff1673ffffffffffffffffffffffffffffffffffffffff168152602001908152602001600020600082825403925050819055506001600360008473ffffffffffffffffffffffffffffffffffffffff1673ffffffffffffffffffffffffffffffffffffffff16815260200190815260200160002060008282540192505081905550816002600083815260200190815260200160002060006101000a81548173ffffffffffffffffffffffffffffffffffffffff021916908373ffffffffffffffffffffffffffffffffffffffff160217905550808273ffffffffffffffffffffffffffffffffffffffff168473ffffffffffffffffffffffffffffffffffffffff167fddf252ad1be2c89b69c2b068fc378daa952ba7f163c4a11628f55a4df523b3ef60405160405180910390a46117938383836001611e06565b505050565b60006002600083815260200190815260200160002060009054906101000a900473ffffffffffffffffffffffffffffffffffffffff169050919050565b600073ffffffffffffffffffffffffffffffffffffffff168273ffffffffffffffffffffffffffffffffffffffff1603611844576040517f08c379a000000000000000000000000000000000000000000000000000000000815260040161183b90612f7a565b60405180910390fd5b61184d81611c9f565b1561188d576040517f08c379a000000000000000000000000000000000000000000000000000000000815260040161188490612fe6565b60405180910390fd5b61189b600083836001611ce0565b6118a481611c9f565b156118e4576040517f08c379a00000000000000000000000000000000000000000000000000000000081526004016118db90612fe6565b60405180910390fd5b6001600360008473ffffffffffffffffffffffffffffffffffffffff1673ffffffffffffffffffffffffffffffffffffffff16815260200190815260200160002060008282540192505081905550816002600083815260200190815260200160002060006101000a81548173ffffffffffffffffffffffffffffffffffffffff021916908373ffffffffffffffffffffffffffffffffffffffff160217905550808273ffffffffffffffffffffffffffffffffffffffff16600073ffffffffffffffffffffffffffffffffffffffff167fddf252ad1be2c89b69c2b068fc378daa952ba7f163c4a11628f55a4df523b3ef60405160405180910390a46119ee600083836001611e06565b5050565b8173ffffffffffffffffffffffffffffffffffffffff168373ffffffffffffffffffffffffffffffffffffffff1603611a60576040517f08c379a0000000000000000000000000000000000000000000000000000000008152600401611a5790613052565b60405180910390fd5b80600560008573ffffffffffffffffffffffffffffffffffffffff1673ffffffffffffffffffffffffffffffffffffffff16815260200190815260200160002060008473ffffffffffffffffffffffffffffffffffffffff1673ffffffffffffffffffffffffffffffffffffffff16815260200190815260200160002060006101000a81548160ff0219169083151502179055508173ffffffffffffffffffffffffffffffffffffffff168373ffffffffffffffffffffffffffffffffffffffff167f17307eab39ab6107e8899845ad3d59bd9653f200f220920489ca2b5937696c3183604051611b5191906121bd565b60405180910390a3505050565b611b6984848461149f565b611b7584848484611e0c565b611bb4576040517f08c379a0000000000000000000000000000000000000000000000000000000008152600401611bab906130e4565b60405180910390fd5b50505050565b606060405180602001604052806000815250905090565b606060006001611be084611f93565b01905060008167ffffffffffffffff811115611bff57611bfe6124d5565b5b6040519080825280601f01601f191660200182016040528015611c315781602001600182028036833780820191505090505b509050600082602001820190505b600115611c94578080600190039150507f3031323334353637383961626364656600000000000000000000000000000000600a86061a8153600a8581611c8857611c87613104565b5b04945060008503611c3f575b819350505050919050565b60008073ffffffffffffffffffffffffffffffffffffffff16611cc183611798565b73ffffffffffffffffffffffffffffffffffffffff1614159050919050565b6001811115611e0057600073ffffffffffffffffffffffffffffffffffffffff168473ffffffffffffffffffffffffffffffffffffffff1614611d745780600360008673ffffffffffffffffffffffffffffffffffffffff1673ffffffffffffffffffffffffffffffffffffffff1681526020019081526020016000206000828254611d6c9190612a14565b925050819055505b600073ffffffffffffffffffffffffffffffffffffffff168373ffffffffffffffffffffffffffffffffffffffff1614611dff5780600360008573ffffffffffffffffffffffffffffffffffffffff1673ffffffffffffffffffffffffffffffffffffffff1681526020019081526020016000206000828254611df79190612908565b925050819055505b5b50505050565b50505050565b6000611e2d8473ffffffffffffffffffffffffffffffffffffffff166120e6565b15611f86578373ffffffffffffffffffffffffffffffffffffffff1663150b7a02611e56611349565b8786866040518563ffffffff1660e01b8152600401611e789493929190613188565b6020604051808303816000875af1925050508015611eb457506040513d601f19601f82011682018060405250810190611eb191906131e9565b60015b611f36573d8060008114611ee4576040519150601f19603f3d011682016040523d82523d6000602084013e611ee9565b606091505b506000815103611f2e576040517f08c379a0000000000000000000000000000000000000000000000000000000008152600401611f25906130e4565b60405180910390fd5b805181602001fd5b63150b7a0260e01b7bffffffffffffffffffffffffffffffffffffffffffffffffffffffff1916817bffffffffffffffffffffffffffffffffffffffffffffffffffffffff191614915050611f8b565b600190505b949350505050565b600080600090507a184f03e93ff9f4daa797ed6e38ed64bf6a1f0100000000000000008310611ff1577a184f03e93ff9f4daa797ed6e38ed64bf6a1f0100000000000000008381611fe757611fe6613104565b5b0492506040810190505b6d04ee2d6d415b85acef8100000000831061202e576d04ee2d6d415b85acef8100000000838161202457612023613104565b5b0492506020810190505b662386f26fc10000831061205d57662386f26fc10000838161205357612052613104565b5b0492506010810190505b6305f5e1008310612086576305f5e100838161207c5761207b613104565b5b0492506008810190505b61271083106120ab5761271083816120a1576120a0613104565b5b0492506004810190505b606483106120ce57606483816120c4576120c3613104565b5b0492506002810190505b600a83106120dd576001810190505b80915050919050565b6000808273ffffffffffffffffffffffffffffffffffffffff163b119050919050565b6000604051905090565b600080fd5b600080fd5b60007fffffffff0000000000000000000000000000000000000000000000000000000082169050919050565b6121528161211d565b811461215d57600080fd5b50565b60008135905061216f81612149565b92915050565b60006020828403121561218b5761218a612113565b5b600061219984828501612160565b91505092915050565b60008115159050919050565b6121b7816121a2565b82525050565b60006020820190506121d260008301846121ae565b92915050565b600081519050919050565b600082825260208201905092915050565b60005b838110156122125780820151818401526020810190506121f7565b60008484015250505050565b6000601f19601f8301169050919050565b600061223a826121d8565b61224481856121e3565b93506122548185602086016121f4565b61225d8161221e565b840191505092915050565b60006020820190508181036000830152612282818461222f565b905092915050565b6000819050919050565b61229d8161228a565b81146122a857600080fd5b50565b6000813590506122ba81612294565b92915050565b6000602082840312156122d6576122d5612113565b5b60006122e4848285016122ab565b91505092915050565b600073ffffffffffffffffffffffffffffffffffffffff82169050919050565b6000612318826122ed565b9050919050565b6123288161230d565b82525050565b6000602082019050612343600083018461231f565b92915050565b6123528161230d565b811461235d57600080fd5b50565b60008135905061236f81612349565b92915050565b6000806040838503121561238c5761238b612113565b5b600061239a85828601612360565b92505060206123ab858286016122ab565b9150509250929050565b6123be8161228a565b82525050565b60006020820190506123d960008301846123b5565b92915050565b6000806000606084860312156123f8576123f7612113565b5b600061240686828701612360565b935050602061241786828701612360565b9250506040612428868287016122ab565b9150509250925092565b60006020828403121561244857612447612113565b5b600061245684828501612360565b91505092915050565b612468816121a2565b811461247357600080fd5b50565b6000813590506124858161245f565b92915050565b600080604083850312156124a2576124a1612113565b5b60006124b085828601612360565b92505060206124c185828601612476565b9150509250929050565b600080fd5b600080fd5b7f4e487b7100000000000000000000000000000000000000000000000000000000600052604160045260246000fd5b61250d8261221e565b810181811067ffffffffffffffff8211171561252c5761252b6124d5565b5b80604052505050565b600061253f612109565b905061254b8282612504565b919050565b600067ffffffffffffffff82111561256b5761256a6124d5565b5b6125748261221e565b9050602081019050919050565b82818337600083830152505050565b60006125a361259e84612550565b612535565b9050828152602081018484840111156125bf576125be6124d0565b5b6125ca848285612581565b509392505050565b600082601f8301126125e7576125e66124cb565b5b81356125f7848260208601612590565b91505092915050565b6000806000806080858703121561261a57612619612113565b5b600061262887828801612360565b945050602061263987828801612360565b935050604061264a878288016122ab565b925050606085013567ffffffffffffffff81111561266b5761266a612118565b5b612677878288016125d2565b91505092959194509250565b6000806040838503121561269a57612699612113565b5b60006126a885828601612360565b92505060206126b985828601612360565b9150509250929050565b7f4e487b7100000000000000000000000000000000000000000000000000000000600052602260045260246000fd5b6000600282049050600182168061270a57607f821691505b60208210810361271d5761271c6126c3565b5b50919050565b7f4552433732313a20617070726f76616c20746f2063757272656e74206f776e6560008201527f7200000000000000000000000000000000000000000000000000000000000000602082015250565b600061277f6021836121e3565b915061278a82612723565b604082019050919050565b600060208201905081810360008301526127ae81612772565b9050919050565b7f4552433732313a20617070726f76652063616c6c6572206973206e6f7420746f60008201527f6b656e206f776e6572206f7220617070726f76656420666f7220616c6c000000602082015250565b6000612811603d836121e3565b915061281c826127b5565b604082019050919050565b6000602082019050818103600083015261284081612804565b9050919050565b7f4552433732313a2063616c6c6572206973206e6f7420746f6b656e206f776e6560008201527f72206f7220617070726f76656400000000000000000000000000000000000000602082015250565b60006128a3602d836121e3565b91506128ae82612847565b604082019050919050565b600060208201905081810360008301526128d281612896565b9050919050565b7f4e487b7100000000000000000000000000000000000000000000000000000000600052601160045260246000fd5b60006129138261228a565b915061291e8361228a565b9250828201905080821115612936576129356128d9565b5b92915050565b7f4e6f20746f6b656e73206c656674000000000000000000000000000000000000600082015250565b6000612972600e836121e3565b915061297d8261293c565b602082019050919050565b600060208201905081810360008301526129a181612965565b9050919050565b7f496e73756666696369656e742062616c616e6365000000000000000000000000600082015250565b60006129de6014836121e3565b91506129e9826129a8565b602082019050919050565b60006020820190508181036000830152612a0d816129d1565b9050919050565b6000612a1f8261228a565b9150612a2a8361228a565b9250828203905081811115612a4257612a416128d9565b5b92915050565b7f496e73756666696369656e742066756e64730000000000000000000000000000600082015250565b6000612a7e6012836121e3565b9150612a8982612a48565b602082019050919050565b60006020820190508181036000830152612aad81612a71565b9050919050565b7f4f766572666c6f77000000000000000000000000000000000000000000000000600082015250565b6000612aea6008836121e3565b9150612af582612ab4565b602082019050919050565b60006020820190508181036000830152612b1981612add565b9050919050565b7f4552433732313a20696e76616c696420746f6b656e2049440000000000000000600082015250565b6000612b566018836121e3565b9150612b6182612b20565b602082019050919050565b60006020820190508181036000830152612b8581612b49565b9050919050565b600081905092915050565b50565b6000612ba7600083612b8c565b9150612bb282612b97565b600082019050919050565b6000612bc882612b9a565b9150819050919050565b7f546f6b656e207472616e7366657220746f206275796572206661696c65642e00600082015250565b6000612c08601f836121e3565b9150612c1382612bd2565b602082019050919050565b60006020820190508181036000830152612c3781612bfb565b9050919050565b6000612c498261228a565b91507fffffffffffffffffffffffffffffffffffffffffffffffffffffffffffffffff8203612c7b57612c7a6128d9565b5b600182019050919050565b7f4552433732313a2061646472657373207a65726f206973206e6f74206120766160008201527f6c6964206f776e65720000000000000000000000000000000000000000000000602082015250565b6000612ce26029836121e3565b9150612ced82612c86565b604082019050919050565b60006020820190508181036000830152612d1181612cd5565b9050919050565b7f596f7520617265206e6f7420746865206f776e6572206f66207468697320746f60008201527f6b656e0000000000000000000000000000000000000000000000000000000000602082015250565b6000612d746023836121e3565b9150612d7f82612d18565b604082019050919050565b60006020820190508181036000830152612da381612d67565b9050919050565b600081905092915050565b6000612dc0826121d8565b612dca8185612daa565b9350612dda8185602086016121f4565b80840191505092915050565b6000612df28285612db5565b9150612dfe8284612db5565b91508190509392505050565b7f4552433732313a207472616e736665722066726f6d20696e636f72726563742060008201527f6f776e6572000000000000000000000000000000000000000000000000000000602082015250565b6000612e666025836121e3565b9150612e7182612e0a565b604082019050919050565b60006020820190508181036000830152612e9581612e59565b9050919050565b7f4552433732313a207472616e7366657220746f20746865207a65726f2061646460008201527f7265737300000000000000000000000000000000000000000000000000000000602082015250565b6000612ef86024836121e3565b9150612f0382612e9c565b604082019050919050565b60006020820190508181036000830152612f2781612eeb565b9050919050565b7f4552433732313a206d696e7420746f20746865207a65726f2061646472657373600082015250565b6000612f646020836121e3565b9150612f6f82612f2e565b602082019050919050565b60006020820190508181036000830152612f9381612f57565b9050919050565b7f4552433732313a20746f6b656e20616c7265616479206d696e74656400000000600082015250565b6000612fd0601c836121e3565b9150612fdb82612f9a565b602082019050919050565b60006020820190508181036000830152612fff81612fc3565b9050919050565b7f4552433732313a20617070726f766520746f2063616c6c657200000000000000600082015250565b600061303c6019836121e3565b915061304782613006565b602082019050919050565b6000602082019050818103600083015261306b8161302f565b9050919050565b7f4552433732313a207472616e7366657220746f206e6f6e20455243373231526560008201527f63656976657220696d706c656d656e7465720000000000000000000000000000602082015250565b60006130ce6032836121e3565b91506130d982613072565b604082019050919050565b600060208201905081810360008301526130fd816130c1565b9050919050565b7f4e487b7100000000000000000000000000000000000000000000000000000000600052601260045260246000fd5b600081519050919050565b600082825260208201905092915050565b600061315a82613133565b613164818561313e565b93506131748185602086016121f4565b61317d8161221e565b840191505092915050565b600060808201905061319d600083018761231f565b6131aa602083018661231f565b6131b760408301856123b5565b81810360608301526131c9818461314f565b905095945050505050565b6000815190506131e381612149565b92915050565b6000602082840312156131ff576131fe612113565b5b600061320d848285016131d4565b9150509291505056fea26469706673582212204cb4c0ca3cfded634c2ebb364a826e5a4461949a12c5bbe58683ef9d35c9c8b164736f6c63430008110033",
  "linkReferences": {},
  "deployedLinkReferences": {}
}